:0300000002028079
:0C028000787FE4F6D8FD7581120202C7F9
:0C03FC00020D000002080000020A0000D0
:040340007F327E008A
:10034400E4FDFCC3ED9FEE6480F8EC6480985015E6
:10035400E4FBFA0BBB00010ABA03F8BBE8F50DBDD8
:0503640000010C80DE29
:010369002271
:050413008E0D8F0E228A
:1003EB00C2AF438920758DFDD28EC29FD29ED2AFF4
:0103FB0022DF
:0C038F007F7E12039B7F0412039B7F41C2
:0E039B00C2ACC2998F993099FDC299D2AC22A2
:1003D8001203A9FF600C12039B740129F9E43AFA8D
:0303E80080EE2282
:03002300020409CB
:0A040900C2ACC29885990CD2AC3247
:100003008E0F8F108C118D127F331201A712038F65
:0F001300AF1012039BAF1212039B7FEF02039BF0
:1001A700EF24CF700302023B24FE700302024E24A9
:1001B70033B40900400302027F9001C7F82828736F
:1001C7000201E20201E90201F7020204020211023E
:1001D700021F02022D02026102026D12038FE4FF69
:1001E70080227F7E12039B7F0212039B1F020277EE
:1001F7007F7E12039B7F0212039B0202777F7E1290
:10020700039B7F0212039B0F80667F7E12039B7FF7
:100217000212039B7F0480587F7E12039B7F02128A
:10022700039B7F05804A7F7E12039B7F0212039BFD
:100237007F06803C7F7E12039B7F0312039B7F31E7
:1002470012039B7F1480297F7E12039B7F03120377
:100257009B7F3312039B7F04801612038FE4FF12E8
:10026700039B7F02800A12038FE4FF12039B7F0325
:0902770012039B7FEF12039B228E
:1003C2007F331201A77F311201A7C2AC7FE87E03FF
:0603D200120344D2AC222C
:10030C00C280C281C290C291C292C282C283C29385
:10031C00C294C295D2A0D2A1D2A4D2A5D2A6D2A266
:10032C00D2A3D2A7D284D285C286E4F508F509F50A
:04033C000AF50B2291
:10036A0012030C1203EB1203C27F647E00120344D1
:10037A00E50D70FCE50E1460080470F41200268086
:05038A00EFD28680EBBC
:10002600E4F508F509F50AF50B3080117F32FE126A
:1000360003443080080509E5097002050830810E81
:100046001203403081080509E50970020508309061
:100056000E1203403090080509E5097002050830C4
:10006600910E1203403091080509E5097002050852
:1000760030920E1203403092080509E50970020518
:100086000830820E120340308208050BE50B700221
:10009600050A30830E120340308308050BE50B700A
:1000A60002050A30930E120340309308050BE50B48
:1000B6007002050A30940E120340309408050BE5D1
:1000C6000B7002050A30950E120340309508050B99
:1000D600E50B7002050AE50945087004D2A0800AFE
:1000E600E509640145087006C2A0D2A1800CE509A5
:1000F600640245087008C2A0C2A1D2A4800EE50918
:1001060064034508700CC2A0C2A1C2A4D2A5D2A69F
:100116008028E50964044508700CC2A0C2A1C2A4E7
:10012600C2A5D2A68014E50964054508700CC2A0D4
:10013600C2A1C2A4C2A5C2A68060E50B450A70048E
:10014600D2A2800AE509640145087006C2A2D2A3BC
:10015600800CE509640245087008C2A2C2A3D2A7B2
:10016600800EE50964034508700BC2A2C2A3C2A7AC
:10017600D284D28522E50964044508700BC2A2C266
:10018600A3C2A7C284D28522E5096405450870107A
:10019600C2A2C2A3C2A7C284C2857F01FE120413F3
:0101A6002236
:10028C0002036AE493A3F8E493A34003F68001F21B
:10029C0008DFF48029E493A3F85407240CC8C33373
:1002AC00C4540F4420C8834004F456800146F6DF42
:1002BC00E4800B01020408102040809003FCE47ED3
:1002CC00019360BCA3FF543F30E509541FFEE49337
:1002DC00A360010ECF54C025E060A840B8E493A3FE
:1002EC00FAE493A3F8E493A3C8C582C8CAC583CA29
:1002FC00F0A3C8C582C8CAC583CADFE9DEE780BEE1
:0104080000F3
:1003A900BB010689828A83E0225002E722BBFE0252
:0903B900E32289828A83E4932285
:00000001FF
