:030000000200FFFC
:0C00FF00787FE4F6D8FD75810E02014602
:04032200020D0000C8
:04020B007F327E00C0
:10020F00E4FDFCC3ED9FEE6480F8EC64809850151C
:10021F00E4FBFA0BBB00010ABA03F8BBE8F50DBD0E
:05022F0000010C80DE5F
:0102340022A7
:05031D008E0D8F0E2281
:1002E200C2AF438920758DFDD28EC29FD29ED2AFFE
:0102F20022E9
:0C025C007F7E1202687F041202687F415E
:0E026800C2ACC2998F993099FDC299D2AC22D6
:1002BC00120276FF600C120268740129F9E43AFA12
:0302CC0080EE229F
:03002300020313C2
:0A031300C2ACC29885990CD2AC323E
:100003008E088F098C0A8D0B7F3312002612025C37
:0F001300AF09120268AF0B1202687FEF0202689A
:10002600EF24CF70030200BA24FE70030200CD2431
:1000360033B4090040030200FE900046F8282873F6
:10004600020061020068020076020083020090024C
:10005600009E0200AC0200E00200EC12025CE4FF2B
:1000660080227F7E1202687F021202681F0200F65B
:100076007F7E1202687F021202680200F67F7E12FD
:1000860002687F021202680F80667F7E1202687F16
:10009600021202687F0480587F7E1202687F021275
:1000A60002687F05804A7F7E1202687F021202681C
:1000B6007F06803C7F7E1202687F031202687F31D2
:1000C6001202687F1480297F7E1202687F03120263
:1000D600687F331202687F04801612025CE4FF1206
:1000E60002687F02800A12025CE4FF1202687F0344
:0900F6001202687FEF1202682279
:1002A6007F331200267F31120026C2AC7FE87E0320
:0602B60012020FD2AC227F
:10023500C280C281C282C283C284C285C286C2878D
:10024500C290C291D292C293D294C2A0C2A1D2A2AC
:07025500C2A3D2A4D2A5222E
:1001CC001202351202E21202A67F647E0012020FA6
:1001DC00E50D70FCE50E1460121460141460161416
:1001EC006018240470EA12030480E512018B80E08D
:0F01FC001202F380DB12028F80D61202CF80D165
:0F03040030800B12020B3080057F0112031D2287
:10018B0030813D30823A30833730843430853130A2
:10019B00862E30872B30902830912512020B308120
:1001AB001F30821C30831930841630851330861033
:1001BB0030870D30900A309107C2927F0212031DD7
:0101CB002211
:1002F30030930D12020B309307C2947F0312031D38
:0103030022D7
:10028F0030A01330A11012020B30A00A30A107C208
:07029F00A27F0412031D22DF
:1002CF0030A30F12020B30A309C2A4C2A57F0512DF
:0302DF00031D22DA
:10010B000201CCE493A3F8E493A34003F68001F23D
:10011B0008DFF48029E493A3F85407240CC8C333F5
:10012B00C4540F4420C8834004F456800146F6DFC4
:10013B00E4800B0102040810204080900322E47E2F
:10014B00019360BCA3FF543F30E509541FFEE493B9
:10015B00A360010ECF54C025E060A840B8E493A380
:10016B00FAE493A3F8E493A3C8C582C8CAC583CAAB
:10017B00F0A3C8C582C8CAC583CADFE9DEE780BE63
:0103260000D6
:10027600BB010689828A83E0225002E722BBFE0286
:09028600E32289828A83E49322B9
:00000001FF
