:030000000208D91A
:0C08D900787FE4F6D8FD75811602092036
:100B1100020D000002110000020F00050208000092
:040B2100020A0000C4
:040A21007FE87E03E9
:100A2500E4FDFCC3ED9FEE6480F8EC6480985015FE
:100A3500E4FBFA0BBB00010ABA03F8BBE8F50DBDF0
:050A450000010C80DE41
:010A4A002289
:050B86008E0D8F0E2210
:100B5D00C2AF438920758DFDD28EC29FD29ED2AF7A
:010B6D002265
:0C0AC9007F7E120AD57F04120AD57F41FF
:0E0AD500C2ACC2998F993099FDC299D2AC2261
:100B2600120AE3FF600C120AD5740129F9E43AFAB5
:030B360080EE222C
:03002300020B7C51
:0A0B7C00C2ACC29885990CD2AC32CD
:100A6C008E138F148C158D167F33120800120AC941
:0F0A7C00AF14120AD5AF16120AD57FEF020AD5B2
:10080000EF24CF700302089424FE70030208A7248B
:1008100033B4090040030208D8900820F828287350
:1008200002083B02084202085002085D02086A0200
:1008300008780208860208BA0208C6120AC9E4FF4C
:1008400080227F7E120AD57F02120AD51F0208D0AD
:100850007F7E120AD57F02120AD50208D07F7E124F
:100860000AD57F02120AD50F80667F7E120AD57FD5
:1008700002120AD57F0480587F7E120AD57F0212A9
:100880000AD57F05804A7F7E120AD57F02120AD5DB
:100890007F06803C7F7E120AD57F03120AD57F3106
:1008A000120AD57F1480297F7E120AD57F03120A8F
:1008B000D57F33120AD57F048016120AC9E4FF12CD
:1008C0000AD57F02800A120AC9E4FF120AD57F0303
:0908D000120AD57FEF120AD522AD
:100B39007F331208007F31120800C2AC120A21D299
:020B4900AC22DC
:100A8B00C280C281D282C283C284C285D286C2870F
:0F0A9B00C290C291D292D293D294D295D2962287
:1009DA00120A8B120B5D120B397F647E00120A25F4
:1009EA00E50D70FCE50E14601514601714601914F7
:1009FA00601B14601D240570E7120B4B80E2120A7B
:100A0A00FC80DD120A4B80D8120AAA80D31209652B
:070A1A0080CE120B6E80C9B3
:100B4B0030800E7F407E1F120A257F017E00120B24
:020B5B008622F0
:100AFC003081117F327E00120A25308107C2827F3D
:050B0C0002120B86221D
:100A4B0030831D30841A3085177F327E00120A25C1
:100A5B0030830D30840A308507C2867F03120B86E4
:010A6B002268
:100AAA0030871B3090187F327E00120A2530870E5D
:0F0ABA0030900B7511007512017F04120B86220C
:10096500E5094508700B309108050BE50B7002058C
:100975000A850808850909E50B450A7008C292C26F
:1009850093C294C295E50B6401450A7008D292C2E0
:1009950093C294C295E50B6402450A7008D292D2BF
:1009A50093C294C295E50B6403450A7008D292D2AE
:1009B50093D294C295C3E50B9404E50A64809480B0
:1009C5004012D292D293D294D295120A217F057EFB
:0509D50000120B862258
:0E0B6E00C296120A21C2867F067E00020B8606
:1008E5000209DAE493A3F8E493A34003F68001F246
:1008F50008DFF48029E493A3F85407240CC8C33314
:10090500C4540F4420C8834004F456800146F6DFE2
:10091500E4800B0102040810204080900B11E47E56
:10092500019360BCA3FF543F30E509541FFEE493D7
:10093500A360010ECF54C025E060A840B8E493A39E
:10094500FAE493A3F8E493A3C8C582C8CAC583CAC9
:10095500F0A3C8C582C8CAC583CADFE9DEE780BE81
:010B250000CF
:100AE300BB010689828A83E0225002E722BBFE0211
:090AF300E32289828A83E4932244
:00000001FF
