:030000000200FFFC
:0C00FF00787FE4F6D8FD758112020146FE
:0C02CE0002090000020D0000020B0005F8
:0401CB007F327E0001
:1001CF00E4FDFCC3ED9FEE6480F8EC64809850155D
:1001DF00E4FBFA0BBB00010ABA03F8BBE8F50DBD4F
:0501EF0000010C80DEA0
:0101F40022E8
:0502E5008E098F0A22C2
:10029B00C2AF438920758DFDD28EC29FD29ED2AF45
:0102AB002230
:0C022D007F7E1202397F041202397F41EB
:0E023900C2ACC2998F993099FDC299D2AC2205
:10027600120247FF600C120239740129F9E43AFAB6
:0302860080EE22E5
:030023000202DBFB
:0A02DB00C2ACC298859908D2AC327B
:100003008E0F8F108C118D127F3312002612022D4A
:0F001300AF10120239AF121202397FEF02023919
:10002600EF24CF70030200BA24FE70030200CD2431
:1000360033B4090040030200FE900046F8282873F6
:10004600020061020068020076020083020090024C
:10005600009E0200AC0200E00200EC12022DE4FF5A
:1000660080227F7E1202397F021202391F0200F6B9
:100076007F7E1202397F021202390200F67F7E125B
:1000860002397F021202390F80667F7E1202397FA3
:10009600021202397F0480587F7E1202397F0212D3
:1000A60002397F05804A7F7E1202397F02120239A9
:1000B6007F06803C7F7E1202397F031202397F3130
:1000C6001202397F1480297F7E1202397F031202C1
:1000D600397F331202397F04801612022DE4FF1293
:1000E60002397F02800A12022DE4FF1202397F03D1
:0900F6001202397FEF12023922D7
:100260007F331200267F31120026C2AC7FE87E0366
:060270001201CFD2AC2206
:1002AC00C280C281D282C283C284C285D286C287F6
:0102BC00221F
:10018B001202AC12029B1202607F647E001201CF3E
:10019B00E50970FCE50A14601314601524FE601663
:1001AB00146018240570E912028980E41202BD80E4
:1001BB00DF1201F580DA12021280D512002280D0F4
:1002890030800E7F407E1F1201CF7F017E00120257
:02029900E5225C
:1002BD0030810D1201CB308107C2827F021202E51F
:0102CD00220E
:1001F5003083193084163085131201CB30830D30CE
:0D020500840A308507C2867F031202E522BD
:100212003082173086141201CB30820E30860B7575
:0B0222000D00750E017F041202E522A2
:0100220022BB
:10010B0002018BE493A3F8E493A34003F68001F27E
:10011B0008DFF48029E493A3F85407240CC8C333F5
:10012B00C4540F4420C8834004F456800146F6DFC4
:10013B00E4800B01020408102040809002CEE47E84
:10014B00019360BCA3FF543F30E509541FFEE493B9
:10015B00A360010ECF54C025E060A840B8E493A380
:10016B00FAE493A3F8E493A3C8C582C8CAC583CAAB
:10017B00F0A3C8C582C8CAC583CADFE9DEE780BE63
:0102DA000023
:10024700BB010689828A83E0225002E722BBFE02B5
:09025700E32289828A83E49322E8
:00000001FF
